{
  "_format": "hh-sol-artifact-1",
  "contractName": "Transactions",
  "sourceName": "contracts/Transactions.sol",
  "abi": [
    {
      "anonymous": false,
      "inputs": [
        {
          "indexed": false,
          "internalType": "address",
          "name": "from",
          "type": "address"
        },
        {
          "indexed": false,
          "internalType": "address",
          "name": "receiver",
          "type": "address"
        },
        {
          "indexed": false,
          "internalType": "uint256",
          "name": "amount",
          "type": "uint256"
        },
        {
          "indexed": false,
          "internalType": "string",
          "name": "message",
          "type": "string"
        },
        {
          "indexed": false,
          "internalType": "uint256",
          "name": "timestamp",
          "type": "uint256"
        },
        {
          "indexed": false,
          "internalType": "string",
          "name": "keyword",
          "type": "string"
        }
      ],
      "name": "Transfer",
      "type": "event"
    },
    {
      "inputs": [
        {
          "internalType": "address payable",
          "name": "receiver",
          "type": "address"
        },
        {
          "internalType": "uint256",
          "name": "amount",
          "type": "uint256"
        },
        {
          "internalType": "string",
          "name": "message",
          "type": "string"
        },
        {
          "internalType": "uint256",
          "name": "timestamp",
          "type": "uint256"
        },
        {
          "internalType": "string",
          "name": "keyword",
          "type": "string"
        }
      ],
      "name": "addToBlockChain",
      "outputs": [],
      "stateMutability": "nonpayable",
      "type": "function"
    },
    {
      "inputs": [],
      "name": "getAllTransactions",
      "outputs": [
        {
          "components": [
            {
              "internalType": "address",
              "name": "from",
              "type": "address"
            },
            {
              "internalType": "address",
              "name": "receiver",
              "type": "address"
            },
            {
              "internalType": "uint256",
              "name": "amount",
              "type": "uint256"
            },
            {
              "internalType": "string",
              "name": "message",
              "type": "string"
            },
            {
              "internalType": "uint256",
              "name": "timestamp",
              "type": "uint256"
            },
            {
              "internalType": "string",
              "name": "keyword",
              "type": "string"
            }
          ],
          "internalType": "struct Transactions.TransferType[]",
          "name": "",
          "type": "tuple[]"
        }
      ],
      "stateMutability": "view",
      "type": "function"
    },
    {
      "inputs": [],
      "name": "getTransactionsCount",
      "outputs": [
        {
          "internalType": "uint256",
          "name": "",
          "type": "uint256"
        }
      ],
      "stateMutability": "view",
      "type": "function"
    }
  ],
  "bytecode": "0x608060405234801561001057600080fd5b50610c90806100206000396000f3fe608060405234801561001057600080fd5b50600436106100415760003560e01c806327506f53146100465780632d04517914610064578063578cb8f914610080575b600080fd5b61004e61009e565b60405161005b919061079b565b60405180910390f35b61007e60048036038101906100799190610970565b6102e1565b005b6100886104aa565b6040516100959190610a32565b60405180910390f35b60606001805480602002602001604051908101604052809291908181526020016000905b828210156102d857838290600052602060002090600602016040518060c00160405290816000820160009054906101000a900473ffffffffffffffffffffffffffffffffffffffff1673ffffffffffffffffffffffffffffffffffffffff1673ffffffffffffffffffffffffffffffffffffffff1681526020016001820160009054906101000a900473ffffffffffffffffffffffffffffffffffffffff1673ffffffffffffffffffffffffffffffffffffffff1673ffffffffffffffffffffffffffffffffffffffff168152602001600282015481526020016003820180546101ab90610a7c565b80601f01602080910402602001604051908101604052809291908181526020018280546101d790610a7c565b80156102245780601f106101f957610100808354040283529160200191610224565b820191906000526020600020905b81548152906001019060200180831161020757829003601f168201915b505050505081526020016004820154815260200160058201805461024790610a7c565b80601f016020809104026020016040519081016040528092919081815260200182805461027390610a7c565b80156102c05780601f10610295576101008083540402835291602001916102c0565b820191906000526020600020905b8154815290600101906020018083116102a357829003601f168201915b505050505081525050815260200190600101906100c2565b50505050905090565b60016000808282546102f39190610add565b9250508190555060006040518060c001604052803373ffffffffffffffffffffffffffffffffffffffff1681526020018773ffffffffffffffffffffffffffffffffffffffff168152602001868152602001858152602001848152602001838152509050600181908060018154018082558091505060019003906000526020600020906006020160009091909190915060008201518160000160006101000a81548173ffffffffffffffffffffffffffffffffffffffff021916908373ffffffffffffffffffffffffffffffffffffffff16021790555060208201518160010160006101000a81548173ffffffffffffffffffffffffffffffffffffffff021916908373ffffffffffffffffffffffffffffffffffffffff1602179055506040820151816002015560608201518160030190805190602001906104379291906104b3565b506080820151816004015560a082015181600501908051906020019061045e9291906104b3565b5050507f416cfa4330a4565f45c2fd2dd4826a83a37443aba2ce6f79477c7355afac35fa33878787878760405161049a96959493929190610beb565b60405180910390a1505050505050565b60008054905090565b8280546104bf90610a7c565b90600052602060002090601f0160209004810192826104e15760008555610528565b82601f106104fa57805160ff1916838001178555610528565b82800160010185558215610528579182015b8281111561052757825182559160200191906001019061050c565b5b5090506105359190610539565b5090565b5b8082111561055257600081600090555060010161053a565b5090565b600081519050919050565b600082825260208201905092915050565b6000819050602082019050919050565b600073ffffffffffffffffffffffffffffffffffffffff82169050919050565b60006105ad82610582565b9050919050565b6105bd816105a2565b82525050565b6000819050919050565b6105d6816105c3565b82525050565b600081519050919050565b600082825260208201905092915050565b60005b838110156106165780820151818401526020810190506105fb565b83811115610625576000848401525b50505050565b6000601f19601f8301169050919050565b6000610647826105dc565b61065181856105e7565b93506106618185602086016105f8565b61066a8161062b565b840191505092915050565b600060c08301600083015161068d60008601826105b4565b5060208301516106a060208601826105b4565b5060408301516106b360408601826105cd565b50606083015184820360608601526106cb828261063c565b91505060808301516106e060808601826105cd565b5060a083015184820360a08601526106f8828261063c565b9150508091505092915050565b60006107118383610675565b905092915050565b6000602082019050919050565b600061073182610556565b61073b8185610561565b93508360208202850161074d85610572565b8060005b85811015610789578484038952815161076a8582610705565b945061077583610719565b925060208a01995050600181019050610751565b50829750879550505050505092915050565b600060208201905081810360008301526107b58184610726565b905092915050565b6000604051905090565b600080fd5b600080fd5b60006107dc82610582565b9050919050565b6107ec816107d1565b81146107f757600080fd5b50565b600081359050610809816107e3565b92915050565b610818816105c3565b811461082357600080fd5b50565b6000813590506108358161080f565b92915050565b600080fd5b600080fd5b7f4e487b7100000000000000000000000000000000000000000000000000000000600052604160045260246000fd5b61087d8261062b565b810181811067ffffffffffffffff8211171561089c5761089b610845565b5b80604052505050565b60006108af6107bd565b90506108bb8282610874565b919050565b600067ffffffffffffffff8211156108db576108da610845565b5b6108e48261062b565b9050602081019050919050565b82818337600083830152505050565b600061091361090e846108c0565b6108a5565b90508281526020810184848401111561092f5761092e610840565b5b61093a8482856108f1565b509392505050565b600082601f8301126109575761095661083b565b5b8135610967848260208601610900565b91505092915050565b600080600080600060a0868803121561098c5761098b6107c7565b5b600061099a888289016107fa565b95505060206109ab88828901610826565b945050604086013567ffffffffffffffff8111156109cc576109cb6107cc565b5b6109d888828901610942565b93505060606109e988828901610826565b925050608086013567ffffffffffffffff811115610a0a57610a096107cc565b5b610a1688828901610942565b9150509295509295909350565b610a2c816105c3565b82525050565b6000602082019050610a476000830184610a23565b92915050565b7f4e487b7100000000000000000000000000000000000000000000000000000000600052602260045260246000fd5b60006002820490506001821680610a9457607f821691505b60208210811415610aa857610aa7610a4d565b5b50919050565b7f4e487b7100000000000000000000000000000000000000000000000000000000600052601160045260246000fd5b6000610ae8826105c3565b9150610af3836105c3565b9250827fffffffffffffffffffffffffffffffffffffffffffffffffffffffffffffffff03821115610b2857610b27610aae565b5b828201905092915050565b610b3c816105a2565b82525050565b6000819050919050565b6000610b67610b62610b5d84610582565b610b42565b610582565b9050919050565b6000610b7982610b4c565b9050919050565b6000610b8b82610b6e565b9050919050565b610b9b81610b80565b82525050565b600082825260208201905092915050565b6000610bbd826105dc565b610bc78185610ba1565b9350610bd78185602086016105f8565b610be08161062b565b840191505092915050565b600060c082019050610c006000830189610b33565b610c0d6020830188610b92565b610c1a6040830187610a23565b8181036060830152610c2c8186610bb2565b9050610c3b6080830185610a23565b81810360a0830152610c4d8184610bb2565b905097965050505050505056fea264697066735822122072ae9aa136c88b3d4ab5a054eb6a7d75ffccaba9e81bc5bf2630a60d9c6ad5c464736f6c63430008090033",
  "linkReferences": {},
  "deployedLinkReferences": {}
}